{
  "contractName": "Agenda",
  "abi": [
    {
      "inputs": [],
      "stateMutability": "nonpayable",
      "type": "constructor"
    },
    {
      "anonymous": false,
      "inputs": [
        {
          "indexed": false,
          "internalType": "string",
          "name": "_name",
          "type": "string"
        },
        {
          "indexed": false,
          "internalType": "string",
          "name": "_surename",
          "type": "string"
        },
        {
          "indexed": false,
          "internalType": "string",
          "name": "_id",
          "type": "string"
        },
        {
          "indexed": false,
          "internalType": "uint256",
          "name": "_cellphone",
          "type": "uint256"
        }
      ],
      "name": "Ingresado",
      "type": "event"
    },
    {
      "inputs": [
        {
          "internalType": "string",
          "name": "_name",
          "type": "string"
        },
        {
          "internalType": "string",
          "name": "_surename",
          "type": "string"
        },
        {
          "internalType": "string",
          "name": "_id",
          "type": "string"
        },
        {
          "internalType": "uint256",
          "name": "_cellphone",
          "type": "uint256"
        }
      ],
      "name": "IngresarPersona",
      "outputs": [],
      "stateMutability": "nonpayable",
      "type": "function"
    },
    {
      "inputs": [],
      "name": "lookAgenda",
      "outputs": [
        {
          "internalType": "string[]",
          "name": "",
          "type": "string[]"
        }
      ],
      "stateMutability": "view",
      "type": "function"
    },
    {
      "inputs": [
        {
          "internalType": "uint256",
          "name": "_cellphone",
          "type": "uint256"
        }
      ],
      "name": "SearchPerson",
      "outputs": [
        {
          "components": [
            {
              "internalType": "string",
              "name": "name",
              "type": "string"
            },
            {
              "internalType": "string",
              "name": "surename",
              "type": "string"
            },
            {
              "internalType": "string",
              "name": "id",
              "type": "string"
            },
            {
              "internalType": "uint256",
              "name": "cellphone",
              "type": "uint256"
            }
          ],
          "internalType": "struct Agenda.Person",
          "name": "_persons",
          "type": "tuple"
        }
      ],
      "stateMutability": "view",
      "type": "function"
    }
  ],
  "bytecode": "0x608060405234801561001057600080fd5b50336000806101000a81548173ffffffffffffffffffffffffffffffffffffffff021916908373ffffffffffffffffffffffffffffffffffffffff1602179055506111c0806100606000396000f3fe608060405234801561001057600080fd5b50600436106100415760003560e01c8063c59b9afd14610046578063dbea034c14610064578063f57f8c3e14610094575b600080fd5b61004e6100b0565b60405161005b9190610e3f565b60405180910390f35b61007e60048036038101906100799190610afc565b610189565b60405161008b9190610efb565b60405180910390f35b6100ae60048036038101906100a99190610a51565b6104c0565b005b60606003805480602002602001604051908101604052809291908181526020016000905b828210156101805783829060005260206000200180546100f390611050565b80601f016020809104026020016040519081016040528092919081815260200182805461011f90611050565b801561016c5780601f106101415761010080835404028352916020019161016c565b820191906000526020600020905b81548152906001019060200180831161014f57829003601f168201915b5050505050815260200190600101906100d4565b50505050905090565b610191610909565b60008054906101000a900473ffffffffffffffffffffffffffffffffffffffff1673ffffffffffffffffffffffffffffffffffffffff163373ffffffffffffffffffffffffffffffffffffffff161461021f576040517f08c379a000000000000000000000000000000000000000000000000000000000815260040161021690610ebb565b60405180910390fd5b60007fffffffffffffffffffffffffffffffffffffffffffffffffffffffffffffffff905060006102a984600480548060200260200160405190810160405280929190818152602001828054801561029657602002820191906000526020600020905b815481526020019060010190808311610282575b505050505061086690919063ffffffff16565b90508181146104b95760026000856040516020016102c79190610e24565b60405160208183030381529060405280519060200120815260200190815260200160002060405180608001604052908160008201805461030690611050565b80601f016020809104026020016040519081016040528092919081815260200182805461033290611050565b801561037f5780601f106103545761010080835404028352916020019161037f565b820191906000526020600020905b81548152906001019060200180831161036257829003601f168201915b5050505050815260200160018201805461039890611050565b80601f01602080910402602001604051908101604052809291908181526020018280546103c490611050565b80156104115780601f106103e657610100808354040283529160200191610411565b820191906000526020600020905b8154815290600101906020018083116103f457829003601f168201915b5050505050815260200160028201805461042a90611050565b80601f016020809104026020016040519081016040528092919081815260200182805461045690611050565b80156104a35780601f10610478576101008083540402835291602001916104a3565b820191906000526020600020905b81548152906001019060200180831161048657829003601f168201915b5050505050815260200160038201548152505092505b5050919050565b60008054906101000a900473ffffffffffffffffffffffffffffffffffffffff1673ffffffffffffffffffffffffffffffffffffffff163373ffffffffffffffffffffffffffffffffffffffff161461054e576040517f08c379a000000000000000000000000000000000000000000000000000000000815260040161054590610ebb565b60405180910390fd5b60005b60018054905081101561064a5760018181548110610598577f4e487b7100000000000000000000000000000000000000000000000000000000600052603260045260246000fd5b90600052602060002090600402016002016040516020016105b99190610e0d565b60405160208183030381529060405280519060200120836040516020016105e09190610df6565b604051602081830303815290604052805190602001201415610637576040517f08c379a000000000000000000000000000000000000000000000000000000000815260040161062e90610edb565b60405180910390fd5b808061064290611082565b915050610551565b506001604051806080016040528086815260200185815260200184815260200183815250908060018154018082558091505060019003906000526020600020906004020160009091909190915060008201518160000190805190602001906106b3929190610931565b5060208201518160010190805190602001906106d0929190610931565b5060408201518160020190805190602001906106ed929190610931565b5060608201518160030155505060008160405160200161070d9190610e24565b604051602081830303815290604052805190602001209050604051806080016040528086815260200185815260200184815260200183815250600260008381526020019081526020016000206000820151816000019080519060200190610775929190610931565b506020820151816001019080519060200190610792929190610931565b5060408201518160020190805190602001906107af929190610931565b50606082015181600301559050506003859080600181540180825580915050600190039060005260206000200160009091909190915090805190602001906107f8929190610931565b5060048290806001815401808255809150506001900390600052602060002001600090919091909150557f07e8a302607f8b79e1ae1ba859c993f6d2f5538281653d49f33036159cc6592d858585856040516108579493929190610e61565b60405180910390a15050505050565b6000807fffffffffffffffffffffffffffffffffffffffffffffffffffffffffffffffff905060005b84518110156108fd578481815181106108d1577f4e487b7100000000000000000000000000000000000000000000000000000000600052603260045260246000fd5b60200260200101518414156108ea578092505050610903565b80806108f590611082565b91505061088f565b50809150505b92915050565b6040518060800160405280606081526020016060815260200160608152602001600081525090565b82805461093d90611050565b90600052602060002090601f01602090048101928261095f57600085556109a6565b82601f1061097857805160ff19168380011785556109a6565b828001600101855582156109a6579182015b828111156109a557825182559160200191906001019061098a565b5b5090506109b391906109b7565b5090565b5b808211156109d05760008160009055506001016109b8565b5090565b60006109e76109e284610f4e565b610f1d565b9050828152602081018484840111156109ff57600080fd5b610a0a84828561100e565b509392505050565b600082601f830112610a2357600080fd5b8135610a338482602086016109d4565b91505092915050565b600081359050610a4b81611173565b92915050565b60008060008060808587031215610a6757600080fd5b600085013567ffffffffffffffff811115610a8157600080fd5b610a8d87828801610a12565b945050602085013567ffffffffffffffff811115610aaa57600080fd5b610ab687828801610a12565b935050604085013567ffffffffffffffff811115610ad357600080fd5b610adf87828801610a12565b9250506060610af087828801610a3c565b91505092959194509250565b600060208284031215610b0e57600080fd5b6000610b1c84828501610a3c565b91505092915050565b6000610b318383610bae565b905092915050565b6000610b4482610fa3565b610b4e8185610fc6565b935083602082028501610b6085610f7e565b8060005b85811015610b9c5784840389528151610b7d8582610b25565b9450610b8883610fb9565b925060208a01995050600181019050610b64565b50829750879550505050505092915050565b6000610bb982610fae565b610bc38185610fd7565b9350610bd381856020860161101d565b610bdc81611162565b840191505092915050565b6000610bf282610fae565b610bfc8185610fe8565b9350610c0c81856020860161101d565b610c1581611162565b840191505092915050565b6000610c2b82610fae565b610c358185610ff9565b9350610c4581856020860161101d565b80840191505092915050565b60008154610c5e81611050565b610c688186610ff9565b94506001821660008114610c835760018114610c9457610cc7565b60ff19831686528186019350610cc7565b610c9d85610f8e565b60005b83811015610cbf57815481890152600182019150602081019050610ca0565b838801955050505b50505092915050565b6000610cdd601283610fe8565b91507f4e6f207469656e6573207065726d69736f7300000000000000000000000000006000830152602082019050919050565b6000610d1d601483610fe8565b91507f5961206573746120656e206c61206167656e64610000000000000000000000006000830152602082019050919050565b60006080830160008301518482036000860152610d6d8282610bae565b91505060208301518482036020860152610d878282610bae565b91505060408301518482036040860152610da18282610bae565b9150506060830151610db66060860182610dc1565b508091505092915050565b610dca81611004565b82525050565b610dd981611004565b82525050565b610df0610deb82611004565b6110cb565b82525050565b6000610e028284610c20565b915081905092915050565b6000610e198284610c51565b915081905092915050565b6000610e308284610ddf565b60208201915081905092915050565b60006020820190508181036000830152610e598184610b39565b905092915050565b60006080820190508181036000830152610e7b8187610be7565b90508181036020830152610e8f8186610be7565b90508181036040830152610ea38185610be7565b9050610eb26060830184610dd0565b95945050505050565b60006020820190508181036000830152610ed481610cd0565b9050919050565b60006020820190508181036000830152610ef481610d10565b9050919050565b60006020820190508181036000830152610f158184610d50565b905092915050565b6000604051905081810181811067ffffffffffffffff82111715610f4457610f43611133565b5b8060405250919050565b600067ffffffffffffffff821115610f6957610f68611133565b5b601f19601f8301169050602081019050919050565b6000819050602082019050919050565b60008190508160005260206000209050919050565b600081519050919050565b600081519050919050565b6000602082019050919050565b600082825260208201905092915050565b600082825260208201905092915050565b600082825260208201905092915050565b600081905092915050565b6000819050919050565b82818337600083830152505050565b60005b8381101561103b578082015181840152602081019050611020565b8381111561104a576000848401525b50505050565b6000600282049050600182168061106857607f821691505b6020821081141561107c5761107b611104565b5b50919050565b600061108d82611004565b91507fffffffffffffffffffffffffffffffffffffffffffffffffffffffffffffffff8214156110c0576110bf6110d5565b5b600182019050919050565b6000819050919050565b7f4e487b7100000000000000000000000000000000000000000000000000000000600052601160045260246000fd5b7f4e487b7100000000000000000000000000000000000000000000000000000000600052602260045260246000fd5b7f4e487b7100000000000000000000000000000000000000000000000000000000600052604160045260246000fd5b6000601f19601f8301169050919050565b61117c81611004565b811461118757600080fd5b5056fea2646970667358221220d48e9ce41e6b66ee992e405f0eda6477ef56c10d5273c0314fcee17fc3e3a06d64736f6c63430008000033",
  "immutableReferences": {},
  "source": "//SPDX-License-Identifier: GPL-3.0\r\n\r\n/**\r\ntitule: En este contrato se desarrolla una agenda telefonica\r\nen la cual se hace uso de una libreria de busqueda para buscar el numbre de \r\nuna persona y sus datos dentro de una lista.\r\n_ se usa mapping para asociar a una persona y sus datos con su hash de identificacion\r\n_ se crea modificador para que solo el owner del contrato pueda ingresar personas dentro\r\nde la agenda.Cualquir persona puede ver los nombres de la agenda,pero no ver sus datos.\r\n\r\n */ \r\n\r\n pragma solidity ^0.8.0;\r\n pragma experimental ABIEncoderV2;\r\n \r\n \r\n library Search{\r\n    //funcion de busqueda dentro de una lista \r\n    function search(uint[] memory _list, uint _valor) internal pure returns(uint){\r\n         int not = -1;\r\n        for(uint i = 0; i < _list.length ; i++)\r\n          if(_valor == _list[i]) return i;\r\n            return uint(not);\r\n    }\r\n }\r\n //creando el contrato de agenda telefonica\r\n contract Agenda{\r\n    // uso de la libreria de busqueda\r\n    using Search for uint[];\r\n\r\n    //declarando el owner del contrato y su constructor\r\n    address owner;\r\n    constructor(){\r\n        owner = msg.sender;\r\n    }\r\n\r\n    //declarando el tipo de datos struct\r\n    struct Person{\r\n        string name;\r\n        string surename;\r\n        string id;\r\n        uint cellphone;\r\n    }\r\n    //definiendo el tipo de dato struct\r\n    Person[] listpersons;\r\n\r\n    //declarando el mapping para guardar los datos\r\n    mapping(bytes32 => Person) persons;\r\n\r\n    //lista de string para guardar los nombres de las personas\r\n     string [] listnames;\r\n\r\n     //lista para guardar los numeros de celular\r\n     uint[] listcellphone;\r\n\r\n    // modificador para ingresar personas en la lista\r\n    modifier onlyOwner(){\r\n        require(msg.sender == owner,\"No tienes permisos\");\r\n        _;\r\n    }\r\n\r\n    //declarando evento para saber que se ingreso a una persona\r\n    event Ingresado(string _name, string _surename, string _id, uint _cellphone);\r\n\r\n    ///dev: funcion para ingresar personas en la agenda solo el owner del contrato\r\n    function IngresarPersona(string memory _name, string memory _surename, string memory _id, uint _cellphone) public onlyOwner{\r\n      for(uint i = 0; i < listpersons.length; i++){\r\n        require(keccak256(abi.encodePacked(_id)) != keccak256(abi.encodePacked(listpersons[i].id)),\"Ya esta en la agenda\");\r\n      }\r\n      listpersons.push(Person(_name, _surename, _id, _cellphone));\r\n\r\n      //guaradamos los datos de la persona en el mapping como clave el hash de si id\r\n      bytes32 hashId = keccak256(abi.encodePacked(_cellphone));\r\n      persons[hashId] = Person(_name, _surename, _id, _cellphone);\r\n\r\n      //guardamos en la lista de nombres las personas que ingresamos en la lista de agenda\r\n      listnames.push(_name);\r\n\r\n      //guardamos los  numeros de los cell en una lista para buscar una persona desde su numero de telefono\r\n      listcellphone.push(_cellphone);\r\n\r\n      //emitimos el evento\r\n      emit Ingresado(_name, _surename, _id, _cellphone);\r\n    }\r\n\r\n    // funcion para ver cuantas parsonas existen en la agenda retornamos el array de nombres\r\n    function lookAgenda() public view returns(string[] memory){\r\n        return listnames;\r\n    }\r\n\r\n    //funcion para buscar una persona por su numero de telefono y si existe retornar sus datos mapping\r\n    //ejecutable solo por owner\r\n    function SearchPerson(uint _cellphone) public view onlyOwner returns(Person memory _persons) {\r\n      int  not = -1;\r\n       uint finded = listcellphone.search(_cellphone);\r\n       if(finded != uint(not))\r\n       //convertir el numemro de telefone en un hash\r\n       _persons =  persons[keccak256(abi.encodePacked(_cellphone))];\r\n       return _persons;\r\n    }\r\n\r\n\r\n }",
  "sourcePath": "C:\\Users\\GEORGE\\Desktop\\prueba\\contracts\\agendatelefonica.sol",
  "compiler": {
    "name": "solc",
    "version": "0.8.0+commit.c7dfd78e.Emscripten.clang"
  },
  "schemaVersion": "3.4.4",
  "updatedAt": "2022-07-22T22:02:09.664Z",
  "devdoc": {
    "kind": "dev",
    "methods": {},
    "version": 1
  },
  "userdoc": {
    "kind": "user",
    "methods": {
      "IngresarPersona(string,string,string,uint256)": {
        "notice": "dev: funcion para ingresar personas en la agenda solo el owner del contrato"
      }
    },
    "version": 1
  }
}